S01200006D6F746F725F66756E632E73726563D6
S11300000C9434000C943E000C943E000C943E007E
S11300100C943E000C943E000C943E000C943E0064
S11300200C943E000C943E000C943E000C943E0054
S11300300C943E000C943E000C943E000C943E0044
S11300400C943E000C943E000C943E000C943E0034
S11300500C943E000C943E000C943E000C943E0024
S11300600C943E000C943E0011241FBECFEFD8E048
S1130070DEBFCDBF0E9452000C9482000C9400009D
S113008085B1806285B985B18F7E85B9089585B1C2
S1130090806185B985B18F7D85B9089585B18F7CDF
S11300A085B9089584B1806384B90E9440002FEF1C
S11300B083E294EF215080409040E1F700C00000BB
S11300C00E944E002FEF87EA91E621508040904035
S11300D0E1F700C000000E9447002FEF83E294EF95
S11300E0215080409040E1F700C000000E944E0083
S11300F02FEF87EA91E6215080409040E1F700C05D
S10B01000000D3CFF894FFCFF7
S9030000FC
