S01900004143544956455F4C4F575F5357495443482E73726563CD
S11300000C9434000C943E000C943E000C943E007E
S11300100C943E000C943E000C943E000C943E0064
S11300200C943E000C943E000C943E000C943E0054
S11300300C943E000C943E000C943E000C943E0044
S11300400C943E000C943E000C943E000C943E0034
S11300500C943E000C943E000C943E000C943E0024
S11300600C943E000C943E0011241FBECFEFD8E048
S1130070DEBFCDBF0E9440000C944B000C940000E6
S113008017B888E08AB986B1811102C01BB8FBCFCA
S10D009088E08BB9F8CFF894FFCF95
S9030000FC
