S01100005350495F424D3238302E737265639F
S11300000C9434000C943E000C943E000C943E007E
S11300100C943E000C943E000C943E000C943E0064
S11300200C943E000C943E000C943E000C943E0054
S11300300C943E000C943E000C943E000C943E0044
S11300400C943E000C943E000C943E000C943E0034
S11300500C943E000C943E000C943E000C943E0024
S11300600C943E000C943E0011241FBECFEFD8E048
S1130070DEBFCDBF0E9440000C9466000C940000CB
S113008084B18D6284B984B18F7E84B981E58CBDDD
S11300908CB5837F8CBD85B18B7F85B980ED8EBD9A
S11300A00DB407FEFDCF8EB51EBC0DB407FEFDCF0B
S11300B09EB585B1846085B9983521F485B1816098
S11300C085B9FACF85B18E7F85B9F6CFF894FFCF85
S9030000FC
