S00B00005350492E737265632D
S11300000C9434000C943E000C943E000C943E007E
S11300100C943E000C943E000C943E000C943E0064
S11300200C943E000C943E000C943E000C943E0054
S11300300C943E000C943E000C943E000C943E0044
S11300400C943E000C943E000C943E000C943E0034
S11300500C943E000C943E000C943E000C943E0024
S11300600C943E000C943E0011241FBECFEFD8E048
S1130070DEBFCDBF0E9458000C9499000C94000080
S113008084B18D6284B984B18F7E84B981E58CBDDD
S113009085B1846085B9089595B19B7F95B98EBD6E
S11300A00DB407FEFDCF85B1846085B98EB5089582
S11300B00E94400085B18E7F85B988E40E944C007F
S11300C0813451F585B1816085B92FEF33ED80E33B
S11300D0215030408040E1F700C0000085B18E7FA0
S11300E085B91DC095B1916095B99FEF23EC39E0B6
S11300F0915020403040E1F700C0000095B19E7F50
S113010095B99FEF23EC39E0915020403040E1F75E
S113011000C000008F5F01C080E0823018F38FEFD1
S113012097EA21E6815090402040E1F700C00000AA
S1090130C4CFF894FFCFD8
S9030000FC
