S01E0000424D3238305F70726573737572655F73656E73696E672E73726563AF
S11300000C9434000C9449000C9449000C9449005D
S11300100C9449000C9449000C9449000C94490038
S11300200C9449000C9449000C9449000C94490028
S11300300C9449000C9449000C9449000C94490018
S11300400C9449000C9449000C9449000C94490008
S11300500C9449000C9449000C9449000C944900F8
S11300600C9449000C94490011241FBECFEFD8E032
S1130070DEBFCDBF11E0A0E0B1E0EAE2FDE002C0E6
S113008005900D92A032B107D9F70E944B000C9451
S113009093060C940000CF93DF93CDB7DEB7E597BA
S11300A00FB6F894DEBF0FBECDBF0E94DC0384B14F
S11300B08D6284B984B18F7E84B98CB581658CBD21
S11300C08CB5837F8CBD85B18B7F85B980ED8EBD6A
S11300D00DB407FEFDCF8EB51EBC0DB407FEFDCFDB
S11300E08EB489A285B1846085B985B18B7F85B9C9
S11300F084E78EBD0DB407FEFDCF8EB587E28EBDBD
S11301000DB407FEFDCF8EB585B1846085B92FEFA0
S113011031EE44E0215030404040E1F700C000009F
S113012085B18B7F85B988E88EBD0DB407FEFDCF00
S11301308EB580E00DC01EBC0DB407FEFDCF9EB58C
S1130140E1E0F0E0EC0FFD1FE80FF11D90838F5FFD
S1130150883188F385B1846085B90A8110E0102F55
S113016000278981082B2C80312C322C22248B816E
S1130170282A8E8190E0982F88272D814C01822A8D
S11301809BA28AA2888590E0982F88272F815C0102
S1130190A22ABDA2ACA28A8590E0982F882729853F
S11301A04C01822A9FA28EA28C8590E0982F8827EA
S11301B02B855C01A22AB9A6A8A68E8590E0982F6B
S11301C088272D854C01822A9BA68AA6888990E0DF
S11301D0982F88272F855C01A22ABDA6ACA68A8900
S11301E090E0982F882729894C01822A9FA68EA601
S11301F08C8990E0982F88272B895C01A22AB9AAC0
S1130200A8AA8E8990E0982F88272D894C01822AEC
S11302109BAA8AAA888D90E0982F88272F895C0151
S1130220A22ABDAAACAA85B18B7F85B98AEF8EBDFF
S11302300DB407FEFDCF8EB51EBC0DB407FEFDCF79
S11302404EB550E060E070E01EBC0DB407FEFDCF7B
S11302508EB590E0A0E0B0E01EBC0DB407FEFDCF6B
S1130260CEB4D12CE12CF12C25B1246025B9032E78
S11302703CE0440F551F661F771F3A95D1F7302D88
S1130280880F991FAA1FBB1F880F991FAA1FBB1F86
S1130290880F991FAA1FBB1F880F991FAA1FBB1F76
S11302A0842B952BA62BB72BB701A601689413F8C2
S11302B076956795579547951694D1F7482B592B02
S11302C06A2B7B2B85B18B7F85B987EF8EBD0DB4EF
S11302D007FEFDCF8EB51EBC0DB407FEFDCF8EB458
S11302E0912CA12CB12C1EBC0DB407FEFDCF8EB5F4
S11302F090E0A0E0B0E01EBC0DB407FEFDCFCEB48C
S1130300D12CE12CF12C25B1246025B9072E7CE0F9
S1130310880C991CAA1CBB1C7A95D1F7702D880FE8
S1130320991FAA1FBB1F880F991FAA1FBB1F880FE5
S1130330991FAA1FBB1F880F991FAA1FBB1F8829BB
S11303409929AA29BB29689413F8F694E794D794B9
S1130350C7941694D1F74C015D018C289D28AE28D2
S1130360BF28898E9A8EAB8EBC8ECB01BA010E94B7
S113037033054B015C0120E030E040E858E30E9483
S1130380E5052B013C01B80180E090E00E943305B3
S11303906B017C0120E030E040E85AE30E94E5056F
S11303A09B01AC01C301B2010E9419042B013C0161
S11303B0B101032C000C880B990B0E9435059B019D
S11303C0AC01C301B2010E94E5052B013C0120E010
S11303D030E040E057E3C501B4010E94E5054B015C
S11303E05C0120E030E040E059E3C701B6010E941F
S11303F0E5059B01AC01C501B4010E9419049B01F0
S1130400AC010E94E5056B017C01AAA0BBA0B5016B
S1130410BB0C880B990B0E9435059B01AC01C701ED
S1130420B6010E94E5059B01AC01C301B2010E9423
S11304301A046B017C0120E030E040EA55E40E949C
S11304408B042B013C0120E030E040E05FE3C70176
S1130450B6010E94E50520E030E04AE757E40E9437
S113046019046B017C019B01AC010E94E5054B0161
S11304705C012EA53FA5B901330F880B990B0E948F
S113048035059B01AC01C501B4010E94E50520E0DE
S113049030E040E058E30E94E5054B015C014CA5C7
S11304A05DA5BA01550F880B990B0E9435059B0178
S11304B0AC01C701B6010E94E5059B01AC010E9495
S11304C01A049B01AC01C501B4010E941A0420E086
S11304D030E040E85EE30E94E5054B015C012AA59B
S11304E03BA5B901330F880B990B0E94350520E019
S11304F030E040E857E40E94E5059B01AC01C501EA
S1130500B4010E941A046D8F7E8F8F8F98A388A4E4
S113051099A4B401990C880B990B0E943505A70185
S113052096010E94E5059B01AC01C701B6010E943A
S1130530E50520E030E040E056E30E94E5054B018C
S11305405C012EA13FA1B901330F880B990B0E94C6
S113055035059B01AC01C701B6010E94E5059B016D
S1130560AC01C501B4010E941A0420E030E040E06F
S113057056E30E94E50520E030E040E058E30E94A5
S1130580E50520E030E040E85FE30E941A046B01D7
S11305907C018CA09DA0B40180E090E00E94330512
S11305A0A70196010E94E5056B017C0120E030E083
S11305B0A9010E948604882309F47DC0698D7A8D7F
S11305C08B8D9C8D0E9433059B01AC0160E070E033
S11305D080E899E40E9419044B015C0120E030E0BA
S11305E040E859E36D8D7E8D8F8D98A10E94E505BD
S11305F09B01AC01C501B4010E94190420E030E55F
S113060043EC55E40E94E505A70196010E948B0482
S11306106B017C01ACA8BDA8B501BB0C880B990B80
S11306200E943505A70196010E94E5059B01AC01D6
S1130630C701B6010E94E50520E030E040E050E348
S11306400E94E5054B015C012AA93BA9B901330FBE
S1130650880B990B0E9435059B01AC01C701B601BB
S11306600E94E50520E030E040E058E30E94E50503
S11306709B01AC01C501B4010E941A044B015C0149
S113068048A959A9BA01550F880B990B0E94350541
S11306909B01AC01C501B4010E941A0420E030E0C2
S11306A040E85DE30E94E5059B01AC01C701B6018A
S11306B00E941A0403C060E070E0CB0120E030E047
S11306C048EC52E40E948B044B015C0180E091E011
S11306D00E94EF03C301B2010E94FD046B01770F76
S11306E0EE08FF08C701B6010E9435059B01AC0165
S11306F0C301B2010E94190420E030E048EC52E446
S11307000E94E5050E94FD042B013C01C701B601CE
S11307100E94FC038EE20E94E803B201550C880B90
S1130720990B0E94FC0388E091E00E94EF038DE0A6
S113073091E00E94EF03C501B4010E94FD046B0126
S1130740770FEE08FF08C701B6010E9435059B012B
S1130750AC01C501B4010E94190420E030E048EC6A
S113076052E40E94E5050E94FD044B015C01C701AF
S1130770B6010E94FC038EE20E94E803B401990CC6
S1130780880B990B0E94FC0389E191E00E94EF031E
S113079059A1583521F485B1816085B903C085B16B
S11307A08E7F85B98FEF93ED20E3815090402040F8
S11307B0E1F700C0000037CD1092C50087E68093B2
S11307C0C40088E08093C10086E08093C20008954D
S11307D09091C00095FFFCCF8093C6000895CF93FD
S11307E0DF93EC0103C021960E94E8038881811104
S11307F0FACFDF91CF910895CF93DF93CDB7DEB7D2
S11308002C970FB6F894DEBF0FBECDBF2AE0AE0121
S11308104F5F5F4F0E945206CE0101960E94EF0384
S11308202C960FB6F894DEBF0FBECDBFDF91CF91EB
S113083008955058BB27AA270E9431040C94AB0595
S11308400E949D0538F00E94A40520F039F49F3FD2
S113085019F426F40C949A050EF4E095E7FB0C9435
S11308609405E92F0E94BC0558F3BA176207730771
S11308708407950720F079F4A6F50C94DE050EF4B0
S1130880E0950B2EBA2FA02D0B01B90190010C019C
S1130890CA01A0011124FF27591B99F0593F50F4B4
S11308A0503E68F11A16F040A22F232F342F44270C
S11308B0585FF3CF469537952795A795F040539504
S11308C0C9F77EF41F16BA0B620B730B840BBAF0D4
S11308D09150A1F0FF0FBB1F661F771F881FC2F73F
S11308E00EC0BA0F621F731F841F48F48795779553
S11308F06795B795F7959E3F08F0B0CF9395880F0D
S113090008F09927EE0F9795879508950E94700532
S113091008F481E008950E949F040C94AB050E94A2
S1130920A40558F00E949D0540F029F45F3F29F08A
S11309300C94940551110C94DF050C949A050E94B3
S1130940BC0568F39923B1F3552391F3951B550B1B
S1130950BB27AA2762177307840738F09F5F5F4F8E
S1130960220F331F441FAA1FA9F335D00E2E3AF0CD
S1130970E0E832D091505040E695001CCAF72BD0E5
S1130980FE2F29D0660F771F881FBB1F2617370736
S11309904807AB07B0E809F0BB0B802DBF01FF2768
S11309A093585F4F3AF09E3F510578F00C949405AC
S11309B00C94DF055F3FE4F3983ED4F38695779576
S11309C06795B795F7959F5FC9F7880F911D969521
S11309D0879597F90895E1E0660F771F881FBB1F7D
S11309E0621773078407BA0720F0621B730B840B2A
S11309F0BA0BEE1F88F7E09508950E9404056894E9
S1130A00B1110C94DF0508950E94C40588F09F5726
S1130A1098F0B92F9927B751B0F0E1F0660F771F1E
S1130A20881F991F1AF0BA95C9F714C0B13091F014
S1130A300E94DE05B1E008950C94DE05672F782F3F
S1130A408827B85F39F0B93FCCF3869577956795D9
S1130A50B395D9F73EF490958095709561957F4F45
S1130A608F4F9F4F0895E89409C097FB3EF49095EB
S1130A708095709561957F4F8F4F9F4F9923A9F073
S1130A80F92F96E9BB279395F69587957795679502
S1130A90B795F111F8CFFAF4BB0F11F460FF1BC046
S1130AA06F5F7F4F8F4F9F4F16C0882311F096E9D9
S1130AB011C0772321F09EE8872F762F05C0662387
S1130AC071F096E8862F70E060E02AF09A95660F40
S1130AD0771F881FDAF7880F9695879597F90895F9
S1130AE0990F0008550FAA0BE0E8FEEF161617063B
S1130AF0E807F907C0F012161306E407F50798F0A3
S1130B00621B730B840B950B39F40A2661F0232BBB
S1130B10242B252B21F408950A2609F4A140A69537
S1130B208FEF811D811D089597F99F6780E870E01C
S1130B3060E008959FEF80EC089500240A9416164F
S1130B40170618060906089500240A9412161306B7
S1130B50140605060895092E0394000C11F4882345
S1130B6052F0BB0F40F4BF2B11F460FF04C06F5F61
S1130B707F4F8F4F9F4F089557FD9058440F551F37
S1130B8059F05F3F71F04795880F97FB991F61F00B
S1130B909F3F79F087950895121613061406551F82
S1130BA0F2CF4695F1DF08C0161617061806991FEE
S1130BB0F1CF86957105610508940895E894BB27E3
S1130BC066277727CB0197F908950E94F8050C94BE
S1130BD0AB050E949D0538F00E94A40520F09523E2
S1130BE011F00C9494050C949A0511240C94DF05CF
S1130BF00E94BC0570F3959FC1F3950F50E0551FFB
S1130C00629FF001729FBB27F00DB11D639FAA275D
S1130C10F00DB11DAA1F649F6627B00DA11D661FAC
S1130C20829F2227B00DA11D621F739FB00DA11DCD
S1130C30621F839FA00D611D221F749F3327A00D87
S1130C40611D231F849F600D211D822F762F6A2F23
S1130C5011249F5750409AF0F1F088234AF0EE0F88
S1130C60FF1FBB1F661F771F881F91505040A9F7B5
S1130C709E3F510580F00C9494050C94DF055F3F72
S1130C80E4F3983ED4F3869577956795B795F795F1
S1130C90E7959F5FC1F7FE2B880F911D9695879569
S1130CA097F90895BB272A3051F4992342F4BDE201
S1130CB090958095709561957F4F8F4F9F4F0C94C1
S1130CC06206BB27FA01A62F6217710581059105FB
S1130CD0330B30FB66F0AA27660F771F881F991F16
S1130CE0AA1FA21710F0A21B63953850A9F7A05DA4
S1130CF0AA3308F0A95DA19336F7B111B19310821C
S1130D00CA010C948306DC01FC01672F71917723DF
S1130D10E1F7329704C07C916D9370836291AE17B2
S10D0D20BF07C8F30895F894FFCF4D
S1130D2A54454D50203D200020432C20005052456C
S1130D3A5353555245203D2000206850610D0A0046
S9030000FC
