:100000000C9434000C943E000C943E000C943E0082
:100010000C943E000C943E000C943E000C943E0068
:100020000C943E000C943E000C943E000C943E0058
:100030000C943E000C943E000C943E000C943E0048
:100040000C943E000C943E000C943E000C943E0038
:100050000C943E000C943E000C943E000C943E0028
:100060000C943E000C943E0011241FBECFEFD8E04C
:10007000DEBFCDBF0E9464000C9470000C940000A1
:1000800084B5826084BD89EF87BD16BC85B581606B
:1000900085BD85B5826085BD85B3826085BB0895C9
:1000A000CF93DF93EC010E94400006C0A99BFECFD6
:1000B00085B3826085BBE9019E0121503109CD2BBA
:1000C000A9F7DF91CF91089584B18E6384B995B17A
:1000D0008EE3892785B980ED97E00E945000F7CF25
:0400E000F894FFCFC2
:00000001FF
