S01800004D4F544F525F46554E435F44454C41592E7372656322
S11300000C9434000C943E000C943E000C943E007E
S11300100C943E000C943E000C943E000C943E0064
S11300200C943E000C943E000C943E000C943E0054
S11300300C943E000C943E000C943E000C943E0044
S11300400C943E000C943E000C943E000C943E0034
S11300500C943E000C943E000C943E000C943E0024
S11300600C943E000C943E0011241FBECFEFD8E048
S1130070DEBFCDBF0E9464000C9478000C94000095
S113008007C0EFE9FFE03197F1F700C000000197E6
S113009018161906B4F3089525B1206225B925B1BF
S11300A02F7E25B90E944000089525B1206125B90D
S11300B025B12F7D25B90E944000089525B12F7CDC
S11300C025B90E944000089584B1806384B980ED0D
S11300D097E00E944C0088EE93E00E945E0080ED61
S11300E097E00E94550088EE93E00E945E00EFCFF7
S10700F0F894FFCFAE
S9030000FC
