:100000000C9434000C943E000C943E000C943E0082
:100010000C943E000C943E000C943E000C943E0068
:100020000C943E000C943E000C943E000C943E0058
:100030000C943E000C943E000C943E000C943E0048
:100040000C943E000C943E000C943E000C943E0038
:100050000C943E000C943E000C943E000C943E0028
:100060000C943E000C943E0011241FBECFEFD8E04C
:10007000DEBFCDBF0E9440000C9479000C940000BC
:100080008AB180648AB984B5836084BD84B5806890
:1000900084BD85B5836085BD17BC80E090E00BC052
:1000A00087BD2FEF39EF40E0215030404040E1F76D
:1000B00000C0000001968F3F910591F38CF38FEF04
:1000C00090E00BC087BD2FEF39EF40E0215030406A
:1000D0004040E1F700C00000019799239CF78FEFA3
:1000E00093ED20E3815090402040E1F700C00000F4
:0600F000D4CFF894FFCF0D
:00000001FF
